{
  "address": "0xe06D5F27bB990Ce83002F2B97F651BA1899d9eE0",
  "abi": [
    {
      "inputs": [
        {
          "internalType": "address",
          "name": "_mainRegistryAddress",
          "type": "address"
        }
      ],
      "stateMutability": "nonpayable",
      "type": "constructor"
    },
    {
      "anonymous": false,
      "inputs": [
        {
          "indexed": true,
          "internalType": "address",
          "name": "attestationAddress",
          "type": "address"
        },
        {
          "indexed": false,
          "internalType": "address[]",
          "name": "authors",
          "type": "address[]"
        },
        {
          "indexed": false,
          "internalType": "address[]",
          "name": "contributors",
          "type": "address[]"
        }
      ],
      "name": "AttestationCreated",
      "type": "event"
    },
    {
      "anonymous": false,
      "inputs": [
        {
          "indexed": true,
          "internalType": "address",
          "name": "newAuthorized",
          "type": "address"
        }
      ],
      "name": "AuthorizedAddressAdded",
      "type": "event"
    },
    {
      "anonymous": false,
      "inputs": [
        {
          "indexed": true,
          "internalType": "address",
          "name": "removedAuthorized",
          "type": "address"
        }
      ],
      "name": "AuthorizedAddressRemoved",
      "type": "event"
    },
    {
      "anonymous": false,
      "inputs": [
        {
          "indexed": true,
          "internalType": "address",
          "name": "previousOwner",
          "type": "address"
        },
        {
          "indexed": true,
          "internalType": "address",
          "name": "newOwner",
          "type": "address"
        }
      ],
      "name": "OwnershipTransferred",
      "type": "event"
    },
    {
      "anonymous": false,
      "inputs": [
        {
          "indexed": false,
          "internalType": "uint256",
          "name": "oldThreshold",
          "type": "uint256"
        },
        {
          "indexed": false,
          "internalType": "uint256",
          "name": "newThreshold",
          "type": "uint256"
        }
      ],
      "name": "VerificationThresholdUpdated",
      "type": "event"
    },
    {
      "inputs": [],
      "name": "_verificationThreshold",
      "outputs": [
        {
          "internalType": "uint256",
          "name": "",
          "type": "uint256"
        }
      ],
      "stateMutability": "view",
      "type": "function"
    },
    {
      "inputs": [
        {
          "internalType": "address",
          "name": "newAuthorized",
          "type": "address"
        }
      ],
      "name": "addAuthorizedAddress",
      "outputs": [],
      "stateMutability": "nonpayable",
      "type": "function"
    },
    {
      "inputs": [
        {
          "internalType": "address",
          "name": "",
          "type": "address"
        }
      ],
      "name": "authorizedAddresses",
      "outputs": [
        {
          "internalType": "bool",
          "name": "",
          "type": "bool"
        }
      ],
      "stateMutability": "view",
      "type": "function"
    },
    {
      "inputs": [
        {
          "internalType": "address[]",
          "name": "_authors",
          "type": "address[]"
        },
        {
          "internalType": "address[]",
          "name": "_contributors",
          "type": "address[]"
        },
        {
          "internalType": "string",
          "name": "_ipfsHash",
          "type": "string"
        },
        {
          "internalType": "uint256[]",
          "name": "_quotedAttestationId",
          "type": "uint256[]"
        },
        {
          "internalType": "string[]",
          "name": "_tags",
          "type": "string[]"
        },
        {
          "internalType": "uint256",
          "name": "_coPublishThreshold",
          "type": "uint256"
        }
      ],
      "name": "createAttestation",
      "outputs": [
        {
          "internalType": "address",
          "name": "",
          "type": "address"
        }
      ],
      "stateMutability": "nonpayable",
      "type": "function"
    },
    {
      "inputs": [],
      "name": "mainRegistry",
      "outputs": [
        {
          "internalType": "contract MainRegistry",
          "name": "",
          "type": "address"
        }
      ],
      "stateMutability": "view",
      "type": "function"
    },
    {
      "inputs": [],
      "name": "owner",
      "outputs": [
        {
          "internalType": "address",
          "name": "",
          "type": "address"
        }
      ],
      "stateMutability": "view",
      "type": "function"
    },
    {
      "inputs": [
        {
          "internalType": "address",
          "name": "authorizedToRemove",
          "type": "address"
        }
      ],
      "name": "removeAuthorizedAddress",
      "outputs": [],
      "stateMutability": "nonpayable",
      "type": "function"
    },
    {
      "inputs": [],
      "name": "renounceOwnership",
      "outputs": [],
      "stateMutability": "nonpayable",
      "type": "function"
    },
    {
      "inputs": [
        {
          "internalType": "uint256",
          "name": "newThreshold",
          "type": "uint256"
        }
      ],
      "name": "setVerificationThreshold",
      "outputs": [],
      "stateMutability": "nonpayable",
      "type": "function"
    },
    {
      "inputs": [
        {
          "internalType": "address",
          "name": "newOwner",
          "type": "address"
        }
      ],
      "name": "transferOwnership",
      "outputs": [],
      "stateMutability": "nonpayable",
      "type": "function"
    }
  ],
  "transactionHash": "0x355e1abe5dc907753c4e5c9f12925bed72959708519b1fd67b0d58b51261da69",
  "args": [
    "0xa8f3Ec9865196a96d4C157A7965fAfF7ed46Ee97"
  ],
  "numDeployments": 1,
  "solcInputHash": "980f727d7032392788f471ccb8009e14",
  "bytecode": "0x608060405266b1a2bc2ec5000060025534801561001b57600080fd5b506040516131a03803806131a083398101604081905261003a916100d2565b61004333610082565b600180546001600160a01b0319166001600160a01b0392909216919091178155336000908152600360205260409020805460ff19169091179055610102565b600080546001600160a01b038381166001600160a01b0319831681178455604051919092169283917f8be0079c531659141344cd1fd0a4f28419497f9722a3daafe3b4186f6b6457e09190a35050565b6000602082840312156100e457600080fd5b81516001600160a01b03811681146100fb57600080fd5b9392505050565b61308f806101116000396000f3fe60806040523480156200001157600080fd5b5060043610620000ab5760003560e01c8063715018a6116200006e578063715018a614620001415780638da5cb5b146200014b578063df41df5e146200015d578063f19e207e1462000174578063f2fde38b14620001ab57600080fd5b8063040fcdb814620000b057806338cc32c414620000cd57806342f1181e14620000e657806355da3dd714620000fd57806370712939146200012a575b600080fd5b620000ba60025481565b6040519081526020015b60405180910390f35b620000e4620000de366004620008d1565b620001c2565b005b620000e4620000f736600462000908565b6200025d565b60015462000111906001600160a01b031681565b6040516001600160a01b039091168152602001620000c4565b620000e46200013b36600462000908565b6200031e565b620000e4620003d4565b6000546001600160a01b031662000111565b620001116200016e36600462000b7d565b620003ec565b6200019a6200018536600462000908565b60036020526000908152604090205460ff1681565b6040519015158152602001620000c4565b620000e4620001bc36600462000908565b62000798565b3360009081526003602052604090205460ff16620002185760405162461bcd60e51b815260206004820152600e60248201526d139bdd08185d5d1a1bdc9a5e995960921b60448201526064015b60405180910390fd5b600280549082905560408051828152602081018490527f64f30c20f1b54bf3f4123915fdb7c86db11cbdf94a186e56552678e6d7b5d19a910160405180910390a15050565b6200026762000817565b6001600160a01b03811660009081526003602052604090205460ff1615620002d25760405162461bcd60e51b815260206004820152601a60248201527f4164647265737320616c726561647920617574686f72697a656400000000000060448201526064016200020f565b6001600160a01b038116600081815260036020526040808220805460ff19166001179055517f10ac961f00d5e732ba4dcc2c6fb09bebea0eb9edd2a75c8109775ef288382e679190a250565b6200032862000817565b6001600160a01b03811660009081526003602052604090205460ff166200038b5760405162461bcd60e51b81526020600482015260166024820152751059191c995cdcc81b9bdd08185d5d1a1bdc9a5e995960521b60448201526064016200020f565b6001600160a01b038116600081815260036020526040808220805460ff19169055517f66d5f06f711af3c9feba3203fdb00b51345d514c68585d9d319c5ff5e6f775929190a250565b620003de62000817565b620003ea600062000873565b565b600080600160009054906101000a90046001600160a01b03168888888888886002546040516200041c90620008c3565b6200042f98979695949392919062000d51565b604051809103906000f0801580156200044c573d6000803e3d6000fd5b50875189519192508291600091620004649162000e23565b67ffffffffffffffff8111156200047f576200047f6200092d565b604051908082528060200260200182016040528015620004a9578160200160208202803683370190505b50905060005b8a5181101562000518578a8181518110620004ce57620004ce62000e3f565b6020026020010151828281518110620004eb57620004eb62000e3f565b6001600160a01b0390921660209283029190910190910152806200050f8162000e55565b915050620004af565b5060005b895181101562000593578981815181106200053b576200053b62000e3f565b602002602001015182828d5162000553919062000e23565b8151811062000566576200056662000e3f565b6001600160a01b0390921660209283029190910190910152806200058a8162000e55565b9150506200051c565b5060005b8151811015620006dd5760015482516001600160a01b0390911690634bb5438490849084908110620005cd57620005cd62000e3f565b60200260200101516040518263ffffffff1660e01b81526004016200060191906001600160a01b0391909116815260200190565b602060405180830381865afa1580156200061f573d6000803e3d6000fd5b505050506040513d601f19601f8201168201806040525081019062000645919062000e71565b600003620006c857600154604051631c13c6e560e21b815260206004820152600060248201526001600160a01b039091169063704f1b94906044016020604051808303816000875af1158015620006a0573d6000803e3d6000fd5b505050506040513d601f19601f82011682018060405250810190620006c6919062000e71565b505b80620006d48162000e55565b91505062000597565b5060015460405163cafadbb960e01b81526001600160a01b039091169063cafadbb99062000712908590859060040162000e8b565b600060405180830381600087803b1580156200072d57600080fd5b505af115801562000742573d6000803e3d6000fd5b50505050816001600160a01b03167fdfbdc22c0386fd3c36c2108578c2cf505c0aa9d398e487d4c609bfe9a23cbdc98b8b6040516200078392919062000eb9565b60405180910390a25098975050505050505050565b620007a262000817565b6001600160a01b038116620008095760405162461bcd60e51b815260206004820152602660248201527f4f776e61626c653a206e6577206f776e657220697320746865207a65726f206160448201526564647265737360d01b60648201526084016200020f565b620008148162000873565b50565b6000546001600160a01b03163314620003ea5760405162461bcd60e51b815260206004820181905260248201527f4f776e61626c653a2063616c6c6572206973206e6f7420746865206f776e657260448201526064016200020f565b600080546001600160a01b038381166001600160a01b0319831681178455604051919092169283917f8be0079c531659141344cd1fd0a4f28419497f9722a3daafe3b4186f6b6457e09190a35050565b61216e8062000eec83390190565b600060208284031215620008e457600080fd5b5035919050565b80356001600160a01b03811681146200090357600080fd5b919050565b6000602082840312156200091b57600080fd5b6200092682620008eb565b9392505050565b634e487b7160e01b600052604160045260246000fd5b604051601f8201601f1916810167ffffffffffffffff811182821017156200096f576200096f6200092d565b604052919050565b600067ffffffffffffffff8211156200099457620009946200092d565b5060051b60200190565b600082601f830112620009b057600080fd5b81356020620009c9620009c38362000977565b62000943565b82815260059290921b84018101918181019086841115620009e957600080fd5b8286015b8481101562000a0f5762000a0181620008eb565b8352918301918301620009ed565b509695505050505050565b600082601f83011262000a2c57600080fd5b813567ffffffffffffffff81111562000a495762000a496200092d565b62000a5e601f8201601f191660200162000943565b81815284602083860101111562000a7457600080fd5b816020850160208301376000918101602001919091529392505050565b600082601f83011262000aa357600080fd5b8135602062000ab6620009c38362000977565b82815260059290921b8401810191818101908684111562000ad657600080fd5b8286015b8481101562000a0f578035835291830191830162000ada565b600082601f83011262000b0557600080fd5b8135602062000b18620009c38362000977565b82815260059290921b8401810191818101908684111562000b3857600080fd5b8286015b8481101562000a0f57803567ffffffffffffffff81111562000b5e5760008081fd5b62000b6e8986838b010162000a1a565b84525091830191830162000b3c565b60008060008060008060c0878903121562000b9757600080fd5b863567ffffffffffffffff8082111562000bb057600080fd5b62000bbe8a838b016200099e565b9750602089013591508082111562000bd557600080fd5b62000be38a838b016200099e565b9650604089013591508082111562000bfa57600080fd5b62000c088a838b0162000a1a565b9550606089013591508082111562000c1f57600080fd5b62000c2d8a838b0162000a91565b9450608089013591508082111562000c4457600080fd5b5062000c5389828a0162000af3565b92505060a087013590509295509295509295565b600081518084526020808501945080840160005b8381101562000ca25781516001600160a01b03168752958201959082019060010162000c7b565b509495945050505050565b6000815180845260005b8181101562000cd55760208185018101518683018201520162000cb7565b506000602082860101526020601f19601f83011685010191505092915050565b600082825180855260208086019550808260051b84010181860160005b8481101562000d4457601f1986840301895262000d3183835162000cad565b9884019892509083019060010162000d12565b5090979650505050505050565b6001600160a01b038916815261010060208083018290526000919062000d7a8483018c62000c67565b9150838203604085015262000d90828b62000c67565b9150838203606085015262000da6828a62000cad565b84810360808601528851808252828a0193509082019060005b8181101562000ddd5784518352938301939183019160010162000dbf565b505084810360a086015262000df3818962000cf5565b60c08601979097525050505060e001529695505050505050565b634e487b7160e01b600052601160045260246000fd5b8082018082111562000e395762000e3962000e0d565b92915050565b634e487b7160e01b600052603260045260246000fd5b60006001820162000e6a5762000e6a62000e0d565b5060010190565b60006020828403121562000e8457600080fd5b5051919050565b6001600160a01b038316815260406020820181905260009062000eb19083018462000c67565b949350505050565b60408152600062000ece604083018562000c67565b828103602084015262000ee2818562000c67565b9594505050505056fe60806040523480156200001157600080fd5b506040516200216e3803806200216e833981016040819052620000349162000634565b6001600081905580546001600160a01b0319166001600160a01b038a161790558651620000699060029060208a019062000239565b5085516200007f90600390602089019062000239565b5060046200008e8682620007ca565b508351620000a4906005906020870190620002a3565b508251620000ba906006906020860190620002e1565b506007829055600881905560028054620000fc9190600090620000e157620000e162000896565b6000918252602090912001546001600160a01b03166200010a565b5050505050505050620008fa565b6001600160a01b03811660009081526009602052604090205460ff1615620001785760405162461bcd60e51b815260206004820152601a60248201527f417574686f722068617320616c7265616479207369676e65642e000000000000604482015260640160405180910390fd5b6001600160a01b0381166000908152600960205260408120805460ff19166001179055600a805491620001ab83620008c2565b9091555050600254600354620001c29190620008de565b600a54036200020257600b805460ff191660011790556040517f49ab2c33d6aa0d5732af0c373636e337a25a80ab9e6961359356cd9df689e80990600090a15b6040516001600160a01b038216907f55e089ae85f06da415f9041aa8a5c03313aebb8f346b25859b3127057819829290600090a250565b82805482825590600052602060002090810192821562000291579160200282015b828111156200029157825182546001600160a01b0319166001600160a01b039091161782556020909201916001909101906200025a565b506200029f9291506200033a565b5090565b82805482825590600052602060002090810192821562000291579160200282015b8281111562000291578251825591602001919060010190620002c4565b8280548282559060005260206000209081019282156200032c579160200282015b828111156200032c57825182906200031b9082620007ca565b509160200191906001019062000302565b506200029f92915062000351565b5b808211156200029f57600081556001016200033b565b808211156200029f57600062000368828262000372565b5060010162000351565b50805462000380906200073b565b6000825580601f1062000391575050565b601f016020900490600052602060002090810190620003b191906200033a565b50565b80516001600160a01b0381168114620003cc57600080fd5b919050565b634e487b7160e01b600052604160045260246000fd5b604051601f8201601f191681016001600160401b0381118282101715620004125762000412620003d1565b604052919050565b60006001600160401b03821115620004365762000436620003d1565b5060051b60200190565b600082601f8301126200045257600080fd5b815160206200046b62000465836200041a565b620003e7565b82815260059290921b840181019181810190868411156200048b57600080fd5b8286015b84811015620004b157620004a381620003b4565b83529183019183016200048f565b509695505050505050565b600082601f830112620004ce57600080fd5b81516001600160401b03811115620004ea57620004ea620003d1565b602062000500601f8301601f19168201620003e7565b82815285828487010111156200051557600080fd5b60005b838110156200053557858101830151828201840152820162000518565b506000928101909101919091529392505050565b600082601f8301126200055b57600080fd5b815160206200056e62000465836200041a565b82815260059290921b840181019181810190868411156200058e57600080fd5b8286015b84811015620004b1578051835291830191830162000592565b600082601f830112620005bd57600080fd5b81516020620005d062000465836200041a565b82815260059290921b84018101918181019086841115620005f057600080fd5b8286015b84811015620004b15780516001600160401b03811115620006155760008081fd5b620006258986838b0101620004bc565b845250918301918301620005f4565b600080600080600080600080610100898b0312156200065257600080fd5b6200065d89620003b4565b60208a01519098506001600160401b03808211156200067b57600080fd5b620006898c838d0162000440565b985060408b0151915080821115620006a057600080fd5b620006ae8c838d0162000440565b975060608b0151915080821115620006c557600080fd5b620006d38c838d01620004bc565b965060808b0151915080821115620006ea57600080fd5b620006f88c838d0162000549565b955060a08b01519150808211156200070f57600080fd5b506200071e8b828c01620005ab565b60c08b015160e0909b0151999c989b509699959894979350505050565b600181811c908216806200075057607f821691505b6020821081036200077157634e487b7160e01b600052602260045260246000fd5b50919050565b601f821115620007c557600081815260208120601f850160051c81016020861015620007a05750805b601f850160051c820191505b81811015620007c157828155600101620007ac565b5050505b505050565b81516001600160401b03811115620007e657620007e6620003d1565b620007fe81620007f784546200073b565b8462000777565b602080601f8311600181146200083657600084156200081d5750858301515b600019600386901b1c1916600185901b178555620007c1565b600085815260208120601f198616915b82811015620008675788860151825594840194600190910190840162000846565b5085821015620008865787850151600019600388901b60f8161c191681555b5050505050600190811b01905550565b634e487b7160e01b600052603260045260246000fd5b634e487b7160e01b600052601160045260246000fd5b600060018201620008d757620008d7620008ac565b5060010190565b80820180821115620008f457620008f4620008ac565b92915050565b611864806200090a6000396000f3fe6080604052600436106101cd5760003560e01c806392d7727c116100f7578063c623674f11610095578063efe071d611610064578063efe071d61461050e578063f14faf6f1461052e578063f613c87114610541578063f69197eb1461057157600080fd5b8063c623674f146104ad578063d4b12530146104c2578063e7f55ed6146104e2578063ea10b231146104f857600080fd5b8063af157c19116100d1578063af157c191461040b578063ba788a1414610420578063bce248cb14610450578063bf6a14131461047d57600080fd5b806392d7727c146103bf578063995d9ab7146103d4578063ac307773146103f657600080fd5b80633cb5d1001161016f5780636dd85b191161013e5780636dd85b191461035d5780637fc622f41461037f5780638361e036146103945780638d1e829b146103a957600080fd5b80633cb5d100146102cb5780633db804da146103035780634a8c1fb41461032357806355da3dd71461033d57600080fd5b80631d0d35f5116101ab5780631d0d35f5146102375780631d1b52361461026757806320822abc146102875780632ca15122146102b457600080fd5b806305fd1ae0146101d2578063167feb09146101fd578063197aecb114610221575b600080fd5b3480156101de57600080fd5b506101e7610591565b6040516101f491906115ad565b60405180910390f35b34801561020957600080fd5b5061021360085481565b6040519081526020016101f4565b34801561022d57600080fd5b5061021360105481565b34801561024357600080fd5b506102576102523660046115f1565b6105e9565b60405190151581526020016101f4565b34801561027357600080fd5b5061021361028236600461161a565b610659565b34801561029357600080fd5b506102a76102a236600461161a565b61067a565b6040516101f49190611679565b3480156102c057600080fd5b506102c9610726565b005b3480156102d757600080fd5b506102eb6102e636600461161a565b6107d2565b6040516001600160a01b0390911681526020016101f4565b34801561030f57600080fd5b506102eb61031e36600461161a565b6107fc565b34801561032f57600080fd5b50600b546102579060ff1681565b34801561034957600080fd5b506001546102eb906001600160a01b031681565b34801561036957600080fd5b5061037261080c565b6040516101f4919061168c565b34801561038b57600080fd5b5061037261086d565b3480156103a057600080fd5b506102c96108cd565b3480156103b557600080fd5b50610213600e5481565b3480156103cb57600080fd5b506102c9610bda565b3480156103e057600080fd5b506103e9610c86565b6040516101f491906116cd565b34801561040257600080fd5b506102c9610d5f565b34801561041757600080fd5b50610372610ee9565b34801561042c57600080fd5b5061025761043b3660046115f1565b600f6020526000908152604090205460ff1681565b34801561045c57600080fd5b5061021361046b3660046115f1565b60116020526000908152604090205481565b34801561048957600080fd5b506102576104983660046115f1565b60096020526000908152604090205460ff1681565b3480156104b957600080fd5b506102a7610f49565b3480156104ce57600080fd5b506102576104dd3660046115f1565b610f56565b3480156104ee57600080fd5b50610213600a5481565b34801561050457600080fd5b5061021360075481565b34801561051a57600080fd5b506102eb61052936600461161a565b610fbf565b6102c961053c36600461161a565b610fcf565b34801561054d57600080fd5b5061025761055c3660046115f1565b600c6020526000908152604090205460ff1681565b34801561057d57600080fd5b506102c961058c36600461161a565b61115a565b606060058054806020026020016040519081016040528092919081815260200182805480156105df57602002820191906000526020600020905b8154815260200190600101908083116105cb575b5050505050905090565b6000805b60035481101561064957826001600160a01b0316600382815481106106145761061461172f565b6000918252602090912001546001600160a01b0316036106375750600192915050565b806106418161175b565b9150506105ed565b5061065382610f56565b92915050565b6005818154811061066957600080fd5b600091825260209091200154905081565b6006818154811061068a57600080fd5b9060005260206000200160009150905080546106a590611774565b80601f01602080910402602001604051908101604052809291908181526020018280546106d190611774565b801561071e5780601f106106f35761010080835404028352916020019161071e565b820191906000526020600020905b81548152906001019060200180831161070157829003601f168201915b505050505081565b600b5460ff161561077e5760405162461bcd60e51b815260206004820152601d60248201527f4174746573746174696f6e20616c72656164792061637469766174656400000060448201526064015b60405180910390fd5b610787336105e9565b6107c75760405162461bcd60e51b81526020600482015260116024820152702737ba10309031b7b73a3934b13aba37b960791b6044820152606401610775565b6107d033611240565b565b600381815481106107e257600080fd5b6000918252602090912001546001600160a01b0316905081565b600281815481106107e257600080fd5b6060600d8054806020026020016040519081016040528092919081815260200182805480156105df57602002820191906000526020600020905b81546001600160a01b03168152600190910190602001808311610846575050505050905090565b606060028054806020026020016040519081016040528092919081815260200182805480156105df576020028201919060005260206000209081546001600160a01b03168152600190910190602001808311610846575050505050905090565b6108d6336105e9565b6109225760405162461bcd60e51b815260206004820152601b60248201527f4e6f74206120636f6e7472696275746f72206f7220617574686f7200000000006044820152606401610775565b3360009081526009602052604090205460ff16156109825760405162461bcd60e51b815260206004820152601b60248201527f43616e6e6f74207265766f6b65206166746572207369676e696e6700000000006044820152606401610775565b6000805b600354811015610a8f57336001600160a01b0316600382815481106109ad576109ad61172f565b6000918252602090912001546001600160a01b031603610a7d57600380546109d7906001906117ae565b815481106109e7576109e761172f565b600091825260209091200154600380546001600160a01b039092169183908110610a1357610a1361172f565b9060005260206000200160006101000a8154816001600160a01b0302191690836001600160a01b031602179055506003805480610a5257610a526117c1565b600082815260209020810160001990810180546001600160a01b031916905501905560019150610a8f565b80610a878161175b565b915050610986565b5080610b9f5760005b600254811015610b9d57336001600160a01b031660028281548110610abf57610abf61172f565b6000918252602090912001546001600160a01b031603610b8b5760028054610ae9906001906117ae565b81548110610af957610af961172f565b600091825260209091200154600280546001600160a01b039092169183908110610b2557610b2561172f565b9060005260206000200160006101000a8154816001600160a01b0302191690836001600160a01b031602179055506002805480610b6457610b646117c1565b600082815260209020810160001990810180546001600160a01b0319169055019055610b9d565b80610b958161175b565b915050610a98565b505b33600081815260116020526040808220829055517f63c343245a29ba32126097ef0590bb182cd477568bd2a4daf57e3f137e011bf49190a250565b336000908152600f602052604090205460ff1615610c2c5760405162461bcd60e51b815260206004820152600f60248201526e105b1c9958591e481d5c1d9bdd1959608a1b6044820152606401610775565b336000908152600f60205260408120805460ff19166001179055600e805491610c548361175b565b909155505060405133907f261adcc11df584b1e56db3dba253410bb208b17821e3b351cbacb117cea2292690600090a2565b60606006805480602002602001604051908101604052809291908181526020016000905b82821015610d56578382906000526020600020018054610cc990611774565b80601f0160208091040260200160405190810160405280929190818152602001828054610cf590611774565b8015610d425780601f10610d1757610100808354040283529160200191610d42565b820191906000526020600020905b815481529060010190602001808311610d2557829003601f168201915b505050505081526020019060010190610caa565b50505050905090565b610d67611365565b610d70336105e9565b610dbc5760405162461bcd60e51b815260206004820152601b60248201527f4e6f74206120636f6e7472696275746f72206f7220617574686f7200000000006044820152606401610775565b3360009081526011602052604090205480610e0d5760405162461bcd60e51b81526020600482015260116024820152704e6f2066756e647320746f20636c61696d60781b6044820152606401610775565b60085460105410610e6d57610e21336113be565b610e6d5760405162461bcd60e51b815260206004820152601f60248201527f417574686f72287329206e6565647320746f20626520766572696669656421006044820152606401610775565b336000818152601160205260408082208290555183156108fc0291849190818181858888f19350505050158015610ea8573d6000803e3d6000fd5b5060405181815233907fa65a8b4f7f65a1063243d7f7e9e4da00ff767599acf21549ef2548a45d1695ae9060200160405180910390a2506107d06001600055565b606060038054806020026020016040519081016040528092919081815260200182805480156105df576020028201919060005260206000209081546001600160a01b03168152600190910190602001808311610846575050505050905090565b600480546106a590611774565b6000805b600254811015610fb657826001600160a01b031660028281548110610f8157610f8161172f565b6000918252602090912001546001600160a01b031603610fa45750600192915050565b80610fae8161175b565b915050610f5a565b50600092915050565b600d81815481106107e257600080fd5b8034146110315760405162461bcd60e51b815260206004820152602a60248201527f53656e742076616c756520646f6573206e6f74206d61746368207370656369666044820152691a595908185b5bdd5b9d60b21b6064820152608401610775565b600081116110715760405162461bcd60e51b815260206004820152600d60248201526c139bc8199d5b991cc81cd95b9d609a1b6044820152606401610775565b61107a8161143e565b60405181815233907f8e47b87b0ef542cdfa1659c551d88bad38aa7f452d2bbb349ab7530dfec8be8f9060200160405180910390a260075481101580156110d15750336000908152600c602052604090205460ff16155b1561115757336000818152600c6020526040808220805460ff19166001908117909155600d8054918201815583527fd7b6990105719101dabeb77144f2a3385c8033acd3af97e9423a695e81ad1eb50180546001600160a01b03191684179055517f17315e8a7842b7b3653b07d725976cf9ea9b7460f9cc3e721b7d72578cf358fa9190a25b50565b61116333610f56565b61119f5760405162461bcd60e51b815260206004820152600d60248201526c2737ba1030b71020baba3437b960991b6044820152606401610775565b600081116111fb5760405162461bcd60e51b815260206004820152602360248201527f5468726573686f6c64206d7573742062652067726561746572207468616e207a60448201526265726f60e81b6064820152608401610775565b600780549082905560408051828152602081018490527f942de8ef2cd89c2657df40444970b9e9f6dda6f481c9ca0db5a78382cbffe310910160405180910390a15050565b6001600160a01b03811660009081526009602052604090205460ff16156112a95760405162461bcd60e51b815260206004820152601a60248201527f417574686f722068617320616c7265616479207369676e65642e0000000000006044820152606401610775565b6001600160a01b0381166000908152600960205260408120805460ff19166001179055600a8054916112da8361175b565b90915550506002546003546112ef91906117d7565b600a540361132e57600b805460ff191660011790556040517f49ab2c33d6aa0d5732af0c373636e337a25a80ab9e6961359356cd9df689e80990600090a15b6040516001600160a01b038216907f55e089ae85f06da415f9041aa8a5c03313aebb8f346b25859b3127057819829290600090a250565b6002600054036113b75760405162461bcd60e51b815260206004820152601f60248201527f5265656e7472616e637947756172643a207265656e7472616e742063616c6c006044820152606401610775565b6002600055565b60006113c982610f56565b80156106535750600154604051631fddb5c760e21b81526001600160a01b03848116600483015290911690637f76d71c90602401602060405180830381865afa15801561141a573d6000803e3d6000fd5b505050506040513d601f19601f8201168201806040525081019061065391906117ea565b600254600354600091611450916117d7565b9050600061145e838361158e565b905060005b600354811015611501576114b38260116000600385815481106114885761148861172f565b60009182526020808320909101546001600160a01b03168352820192909252604001902054906115a1565b60116000600384815481106114ca576114ca61172f565b60009182526020808320909101546001600160a01b03168352820192909252604001902055806114f98161175b565b915050611463565b5060005b6002548110156115785761152a8260116000600285815481106114885761148861172f565b60116000600284815481106115415761154161172f565b60009182526020808320909101546001600160a01b03168352820192909252604001902055806115708161175b565b915050611505565b5060105461158690846115a1565b601055505050565b600061159a828461180c565b9392505050565b600061159a82846117d7565b6020808252825182820181905260009190848201906040850190845b818110156115e5578351835292840192918401916001016115c9565b50909695505050505050565b60006020828403121561160357600080fd5b81356001600160a01b038116811461159a57600080fd5b60006020828403121561162c57600080fd5b5035919050565b6000815180845260005b818110156116595760208185018101518683018201520161163d565b506000602082860101526020601f19601f83011685010191505092915050565b60208152600061159a6020830184611633565b6020808252825182820181905260009190848201906040850190845b818110156115e55783516001600160a01b0316835292840192918401916001016116a8565b6000602080830181845280855180835260408601915060408160051b870101925083870160005b8281101561172257603f19888603018452611710858351611633565b945092850192908501906001016116f4565b5092979650505050505050565b634e487b7160e01b600052603260045260246000fd5b634e487b7160e01b600052601160045260246000fd5b60006001820161176d5761176d611745565b5060010190565b600181811c9082168061178857607f821691505b6020821081036117a857634e487b7160e01b600052602260045260246000fd5b50919050565b8181038181111561065357610653611745565b634e487b7160e01b600052603160045260246000fd5b8082018082111561065357610653611745565b6000602082840312156117fc57600080fd5b8151801515811461159a57600080fd5b60008261182957634e487b7160e01b600052601260045260246000fd5b50049056fea2646970667358221220cbf907e0f7728e0d3dbb583a2d6e707d926a0dde4bed4295369f339b1abf154364736f6c63430008110033a264697066735822122050bac337d88d0bcde671425e4698718e8ce397e74cbb3c5ad04def1cce6d028364736f6c63430008110033",
  "devdoc": {
    "kind": "dev",
    "methods": {
      "owner()": {
        "details": "Returns the address of the current owner."
      },
      "renounceOwnership()": {
        "details": "Leaves the contract without owner. It will not be possible to call `onlyOwner` functions. Can only be called by the current owner. NOTE: Renouncing ownership will leave the contract without an owner, thereby disabling any functionality that is only available to the owner."
      },
      "transferOwnership(address)": {
        "details": "Transfers ownership of the contract to a new account (`newOwner`). Can only be called by the current owner."
      }
    },
    "version": 1
  },
  "userdoc": {
    "kind": "user",
    "methods": {},
    "version": 1
  },
  "storageLayout": {
    "storage": [
      {
        "astId": 7,
        "contract": "contracts/AttestationFactory.sol:AttestationFactory",
        "label": "_owner",
        "offset": 0,
        "slot": "0",
        "type": "t_address"
      },
      {
        "astId": 1336,
        "contract": "contracts/AttestationFactory.sol:AttestationFactory",
        "label": "mainRegistry",
        "offset": 0,
        "slot": "1",
        "type": "t_contract(MainRegistry)2341"
      },
      {
        "astId": 1339,
        "contract": "contracts/AttestationFactory.sol:AttestationFactory",
        "label": "_verificationThreshold",
        "offset": 0,
        "slot": "2",
        "type": "t_uint256"
      },
      {
        "astId": 1343,
        "contract": "contracts/AttestationFactory.sol:AttestationFactory",
        "label": "authorizedAddresses",
        "offset": 0,
        "slot": "3",
        "type": "t_mapping(t_address,t_bool)"
      }
    ],
    "types": {
      "t_address": {
        "encoding": "inplace",
        "label": "address",
        "numberOfBytes": "20"
      },
      "t_bool": {
        "encoding": "inplace",
        "label": "bool",
        "numberOfBytes": "1"
      },
      "t_contract(MainRegistry)2341": {
        "encoding": "inplace",
        "label": "contract MainRegistry",
        "numberOfBytes": "20"
      },
      "t_mapping(t_address,t_bool)": {
        "encoding": "mapping",
        "key": "t_address",
        "label": "mapping(address => bool)",
        "numberOfBytes": "32",
        "value": "t_bool"
      },
      "t_uint256": {
        "encoding": "inplace",
        "label": "uint256",
        "numberOfBytes": "32"
      }
    }
  }
}